{
  "contractName": "Notes",
  "abi": [
    {
      "inputs": [],
      "payable": false,
      "stateMutability": "nonpayable",
      "type": "constructor"
    },
    {
      "anonymous": false,
      "inputs": [
        {
          "indexed": false,
          "name": "id",
          "type": "uint256"
        }
      ],
      "name": "NoteAdded",
      "type": "event"
    },
    {
      "constant": false,
      "inputs": [
        {
          "name": "tag",
          "type": "string"
        },
        {
          "name": "encrypted",
          "type": "string"
        },
        {
          "name": "author",
          "type": "address"
        },
        {
          "name": "sharedWith",
          "type": "address[]"
        },
        {
          "name": "encryptedKey",
          "type": "string"
        }
      ],
      "name": "addNote",
      "outputs": [],
      "payable": false,
      "stateMutability": "nonpayable",
      "type": "function"
    },
    {
      "constant": true,
      "inputs": [],
      "name": "getNoteCount",
      "outputs": [
        {
          "name": "_count",
          "type": "uint256"
        }
      ],
      "payable": false,
      "stateMutability": "view",
      "type": "function"
    },
    {
      "constant": true,
      "inputs": [
        {
          "name": "id",
          "type": "uint256"
        }
      ],
      "name": "getNote",
      "outputs": [
        {
          "name": "tag",
          "type": "string"
        },
        {
          "name": "encrypted",
          "type": "string"
        },
        {
          "name": "author",
          "type": "address"
        },
        {
          "name": "sharedWith",
          "type": "address[]"
        },
        {
          "name": "encryptedKey",
          "type": "string"
        }
      ],
      "payable": false,
      "stateMutability": "view",
      "type": "function"
    }
  ],
  "bytecode": "0x608060405234801561001057600080fd5b5060008081905550610c21806100276000396000f300608060405260043610610057576000357c0100000000000000000000000000000000000000000000000000000000900463ffffffff1680631707c7ad1461005c57806341fb87fb14610085578063a965a941146100b0575b600080fd5b34801561006857600080fd5b50610083600480360361007e9190810190610856565b6100f1565b005b34801561009157600080fd5b5061009a61025e565b6040516100a79190610a74565b60405180910390f35b3480156100bc57600080fd5b506100d760048036036100d2919081019061092d565b610267565b6040516100e8959493929190610a05565b60405180910390f35b6100f961059b565b60a0604051908101604052808781526020018681526020018573ffffffffffffffffffffffffffffffffffffffff168152602001848152602001838152509050806002600080548152602001908152602001600020600082015181600001908051906020019061016a9291906105e1565b5060208201518160010190805190602001906101879291906105e1565b5060408201518160020160006101000a81548173ffffffffffffffffffffffffffffffffffffffff021916908373ffffffffffffffffffffffffffffffffffffffff16021790555060608201518160030190805190602001906101eb929190610661565b5060808201518160040190805190602001906102089291906105e1565b509050507f47845bae1c19c06fc781e2d5e8c917f9d4d91f4d7cfceda2946276046a0aa8ec60005460405161023d9190610a74565b60405180910390a16000808154809291906001019190505550505050505050565b60008054905090565b606080600060608061027761059b565b6002600088815260200190815260200160002060a06040519081016040529081600082018054600181600116156101000203166002900480601f01602080910402602001604051908101604052809291908181526020018280546001816001161561010002031660029004801561032f5780601f106103045761010080835404028352916020019161032f565b820191906000526020600020905b81548152906001019060200180831161031257829003601f168201915b50505050508152602001600182018054600181600116156101000203166002900480601f0160208091040260200160405190810160405280929190818152602001828054600181600116156101000203166002900480156103d15780601f106103a6576101008083540402835291602001916103d1565b820191906000526020600020905b8154815290600101906020018083116103b457829003601f168201915b505050505081526020016002820160009054906101000a900473ffffffffffffffffffffffffffffffffffffffff1673ffffffffffffffffffffffffffffffffffffffff1673ffffffffffffffffffffffffffffffffffffffff168152602001600382018054806020026020016040519081016040528092919081815260200182805480156104b557602002820191906000526020600020905b8160009054906101000a900473ffffffffffffffffffffffffffffffffffffffff1673ffffffffffffffffffffffffffffffffffffffff168152602001906001019080831161046b575b50505050508152602001600482018054600181600116156101000203166002900480601f0160208091040260200160405190810160405280929190818152602001828054600181600116156101000203166002900480156105575780601f1061052c57610100808354040283529160200191610557565b820191906000526020600020905b81548152906001019060200180831161053a57829003601f168201915b505050505081525050905080600001518160200151826040015183606001518460800151849450839350819150809050955095509550955095505091939590929450565b60a0604051908101604052806060815260200160608152602001600073ffffffffffffffffffffffffffffffffffffffff16815260200160608152602001606081525090565b828054600181600116156101000203166002900490600052602060002090601f016020900481019282601f1061062257805160ff1916838001178555610650565b82800160010185558215610650579182015b8281111561064f578251825591602001919060010190610634565b5b50905061065d91906106eb565b5090565b8280548282559060005260206000209081019282156106da579160200282015b828111156106d95782518260006101000a81548173ffffffffffffffffffffffffffffffffffffffff021916908373ffffffffffffffffffffffffffffffffffffffff16021790555091602001919060010190610681565b5b5090506106e79190610710565b5090565b61070d91905b808211156107095760008160009055506001016106f1565b5090565b90565b61075091905b8082111561074c57600081816101000a81549073ffffffffffffffffffffffffffffffffffffffff021916905550600101610716565b5090565b90565b600061075f8235610b6a565b905092915050565b600082601f830112151561077a57600080fd5b813561078d61078882610abc565b610a8f565b915081818352602084019350602081019050838560208402820111156107b257600080fd5b60005b838110156107e257816107c88882610753565b8452602084019350602083019250506001810190506107b5565b5050505092915050565b600082601f83011215156107ff57600080fd5b813561081261080d82610ae4565b610a8f565b9150808252602083016020830185838301111561082e57600080fd5b610839838284610b94565b50505092915050565b600061084e8235610b8a565b905092915050565b600080600080600060a0868803121561086e57600080fd5b600086013567ffffffffffffffff81111561088857600080fd5b610894888289016107ec565b955050602086013567ffffffffffffffff8111156108b157600080fd5b6108bd888289016107ec565b94505060406108ce88828901610753565b935050606086013567ffffffffffffffff8111156108eb57600080fd5b6108f788828901610767565b925050608086013567ffffffffffffffff81111561091457600080fd5b610920888289016107ec565b9150509295509295909350565b60006020828403121561093f57600080fd5b600061094d84828501610842565b91505092915050565b61095f81610b40565b82525050565b600061097082610b1d565b80845260208401935061098283610b10565b60005b828110156109b457610998868351610956565b6109a182610b33565b9150602086019550600181019050610985565b50849250505092915050565b60006109cb82610b28565b8084526109df816020860160208601610ba3565b6109e881610bd6565b602085010191505092915050565b6109ff81610b60565b82525050565b600060a0820190508181036000830152610a1f81886109c0565b90508181036020830152610a3381876109c0565b9050610a426040830186610956565b8181036060830152610a548185610965565b90508181036080830152610a6881846109c0565b90509695505050505050565b6000602082019050610a8960008301846109f6565b92915050565b6000604051905081810181811067ffffffffffffffff82111715610ab257600080fd5b8060405250919050565b600067ffffffffffffffff821115610ad357600080fd5b602082029050602081019050919050565b600067ffffffffffffffff821115610afb57600080fd5b601f19601f8301169050602081019050919050565b6000602082019050919050565b600081519050919050565b600081519050919050565b6000602082019050919050565b600073ffffffffffffffffffffffffffffffffffffffff82169050919050565b6000819050919050565b600073ffffffffffffffffffffffffffffffffffffffff82169050919050565b6000819050919050565b82818337600083830152505050565b60005b83811015610bc1578082015181840152602081019050610ba6565b83811115610bd0576000848401525b50505050565b6000601f19601f83011690509190505600a265627a7a72305820c5e1d063292d39d8454f32b099cb0b5832dc1ade6592df5625644854945ac89c6c6578706572696d656e74616cf50037",
  "source": "pragma solidity ^0.4.23;\npragma experimental ABIEncoderV2;\n\ncontract Notes {\n  uint count;\n  mapping (address => uint) users;\n\n  struct Note {\n    string tag;\n    string encrypted;\n    address author;\n    address[] sharedWith;\n    string encryptedKey;\n  }\n\n  mapping (uint => Note) notes;\n\n  event NoteAdded(uint id);\n\n  constructor() public {\n    count = 0;\n  }\n\n  function addNote(string memory tag, string memory encrypted, address author, address[] memory sharedWith, string memory encryptedKey) public {\n    Note memory note = Note({\n      tag: tag,\n      encrypted: encrypted,\n      author: author,\n      sharedWith: sharedWith,\n      encryptedKey: encryptedKey\n    });\n\n    notes[count] = note;\n    emit NoteAdded(count);\n    count++;\n  }\n\n  function getNoteCount() public view returns (uint _count) {\n    return count;\n  }\n\n  function getNote(uint id) public view returns (string memory tag, string memory encrypted, address author, address[] memory sharedWith, string memory encryptedKey) {\n    Note memory note = notes[id];\n    return (note.tag, note.encrypted, note.author, note.sharedWith, note.encryptedKey);\n  }\n}",
  "sourcePath": "/Users/alaanrahim/Desktop/projects/mantle-example/contracts/contracts/Notes.sol",
  "compiler": {
    "name": "solc",
    "version": "0.4.24+commit.e67f0147.Emscripten.clang"
  },
  "schemaVersion": "2.0.1",
  "updatedAt": "2018-12-10T18:57:04.499Z"
}