{
  "contractName": "Notes",
  "abi": [
    {
      "inputs": [],
      "payable": false,
      "stateMutability": "nonpayable",
      "type": "constructor"
    },
    {
      "anonymous": false,
      "inputs": [
        {
          "indexed": false,
          "name": "id",
          "type": "uint256"
        }
      ],
      "name": "NoteAdded",
      "type": "event"
    },
    {
      "constant": false,
      "inputs": [
        {
          "name": "tag",
          "type": "string"
        },
        {
          "name": "encrypted",
          "type": "string"
        },
        {
          "name": "author",
          "type": "address"
        },
        {
          "name": "sharedWith",
          "type": "address[]"
        }
      ],
      "name": "addNote",
      "outputs": [],
      "payable": false,
      "stateMutability": "nonpayable",
      "type": "function"
    },
    {
      "constant": true,
      "inputs": [],
      "name": "getNoteCount",
      "outputs": [
        {
          "name": "_count",
          "type": "uint256"
        }
      ],
      "payable": false,
      "stateMutability": "view",
      "type": "function"
    },
    {
      "constant": true,
      "inputs": [
        {
          "name": "id",
          "type": "uint256"
        }
      ],
      "name": "getNote",
      "outputs": [
        {
          "name": "tag",
          "type": "string"
        },
        {
          "name": "encrypted",
          "type": "string"
        },
        {
          "name": "author",
          "type": "address"
        },
        {
          "name": "sharedWith",
          "type": "address[]"
        }
      ],
      "payable": false,
      "stateMutability": "view",
      "type": "function"
    }
  ],
  "bytecode": "0x608060405234801561001057600080fd5b50600080819055506108da806100276000396000f300608060405260043610610057576000357c0100000000000000000000000000000000000000000000000000000000900463ffffffff1680632b48790e1461005c57806341fb87fb1461016e578063a965a94114610199575b600080fd5b34801561006857600080fd5b5061016c600480360381019080803590602001908201803590602001908080601f0160208091040260200160405190810160405280939291908181526020018383808284378201915050505050509192919290803590602001908201803590602001908080601f0160208091040260200160405190810160405280939291908181526020018383808284378201915050505050509192919290803573ffffffffffffffffffffffffffffffffffffffff16906020019092919080359060200190820180359060200190808060200260200160405190810160405280939291908181526020018383602002808284378201915050505050509192919290505050610326565b005b34801561017a57600080fd5b5061018361046f565b6040518082815260200191505060405180910390f35b3480156101a557600080fd5b506101c460048036038101908080359060200190929190505050610478565b6040518080602001806020018573ffffffffffffffffffffffffffffffffffffffff1673ffffffffffffffffffffffffffffffffffffffff16815260200180602001848103845288818151815260200191508051906020019080838360005b8381101561023e578082015181840152602081019050610223565b50505050905090810190601f16801561026b5780820380516001836020036101000a031916815260200191505b50848103835287818151815260200191508051906020019080838360005b838110156102a4578082015181840152602081019050610289565b50505050905090810190601f1680156102d15780820380516001836020036101000a031916815260200191505b50848103825285818151815260200191508051906020019060200280838360005b8381101561030d5780820151818401526020810190506102f2565b5050505090500197505050505050505060405180910390f35b61032e6106fd565b6080604051908101604052808681526020018581526020018473ffffffffffffffffffffffffffffffffffffffff168152602001838152509050806002600080548152602001908152602001600020600082015181600001908051906020019061039992919061073c565b5060208201518160010190805190602001906103b692919061073c565b5060408201518160020160006101000a81548173ffffffffffffffffffffffffffffffffffffffff021916908373ffffffffffffffffffffffffffffffffffffffff160217905550606082015181600301908051906020019061041a9291906107bc565b509050507f47845bae1c19c06fc781e2d5e8c917f9d4d91f4d7cfceda2946276046a0aa8ec6000546040518082815260200191505060405180910390a160008081548092919060010191905055505050505050565b60008054905090565b606080600060606104876106fd565b6002600087815260200190815260200160002060806040519081016040529081600082018054600181600116156101000203166002900480601f01602080910402602001604051908101604052809291908181526020018280546001816001161561010002031660029004801561053f5780601f106105145761010080835404028352916020019161053f565b820191906000526020600020905b81548152906001019060200180831161052257829003601f168201915b50505050508152602001600182018054600181600116156101000203166002900480601f0160208091040260200160405190810160405280929190818152602001828054600181600116156101000203166002900480156105e15780601f106105b6576101008083540402835291602001916105e1565b820191906000526020600020905b8154815290600101906020018083116105c457829003601f168201915b505050505081526020016002820160009054906101000a900473ffffffffffffffffffffffffffffffffffffffff1673ffffffffffffffffffffffffffffffffffffffff1673ffffffffffffffffffffffffffffffffffffffff168152602001600382018054806020026020016040519081016040528092919081815260200182805480156106c557602002820191906000526020600020905b8160009054906101000a900473ffffffffffffffffffffffffffffffffffffffff1673ffffffffffffffffffffffffffffffffffffffff168152602001906001019080831161067b575b505050505081525050905080600001518160200151826040015183606001518393508292508090509450945094509450509193509193565b6080604051908101604052806060815260200160608152602001600073ffffffffffffffffffffffffffffffffffffffff168152602001606081525090565b828054600181600116156101000203166002900490600052602060002090601f016020900481019282601f1061077d57805160ff19168380011785556107ab565b828001600101855582156107ab579182015b828111156107aa57825182559160200191906001019061078f565b5b5090506107b89190610846565b5090565b828054828255906000526020600020908101928215610835579160200282015b828111156108345782518260006101000a81548173ffffffffffffffffffffffffffffffffffffffff021916908373ffffffffffffffffffffffffffffffffffffffff160217905550916020019190600101906107dc565b5b509050610842919061086b565b5090565b61086891905b8082111561086457600081600090555060010161084c565b5090565b90565b6108ab91905b808211156108a757600081816101000a81549073ffffffffffffffffffffffffffffffffffffffff021916905550600101610871565b5090565b905600a165627a7a72305820192fdcb97f270bd45d145437db75ffb1d35216161d6d6c443a1d7bb1147776d90029",
  "source": "pragma solidity ^0.4.23;\n\ncontract Notes {\n  uint count;\n  mapping (address => uint) users;\n\n  struct Note {\n    string tag;\n    string encrypted;\n    address author;\n    address[] sharedWith;\n  }\n\n  mapping (uint => Note) notes;\n\n  event NoteAdded(uint id);\n\n  constructor() public {\n    count = 0;\n  }\n\n  function addNote(string memory tag, string memory encrypted, address author, address[] memory sharedWith) public {\n    Note memory note = Note({\n      tag: tag,\n      encrypted: encrypted,\n      author: author,\n      sharedWith: sharedWith\n    });\n\n    notes[count] = note;\n    emit NoteAdded(count);\n    count++;\n  }\n\n  function getNoteCount() public view returns (uint _count) {\n    return count;\n  }\n\n  function getNote(uint id) public view returns (string memory tag, string memory encrypted, address author, address[] memory sharedWith) {\n    Note memory note = notes[id];\n    return (note.tag, note.encrypted, note.author, note.sharedWith);\n  }\n}",
  "sourcePath": "/Users/alaanrahim/Desktop/projects/mantle-example/contracts/contracts/Notes.sol",
  "compiler": {
    "name": "solc",
    "version": "0.4.24+commit.e67f0147.Emscripten.clang"
  },
  "schemaVersion": "2.0.1",
  "updatedAt": "2018-12-10T15:44:08.246Z"
}