{
  "contractName": "Notes",
  "abi": [
    {
      "inputs": [],
      "payable": false,
      "stateMutability": "nonpayable",
      "type": "constructor"
    },
    {
      "anonymous": false,
      "inputs": [
        {
          "indexed": false,
          "name": "id",
          "type": "uint256"
        }
      ],
      "name": "NoteAdded",
      "type": "event"
    },
    {
      "constant": false,
      "inputs": [
        {
          "name": "tag",
          "type": "string"
        },
        {
          "name": "encrypted",
          "type": "string"
        },
        {
          "name": "author",
          "type": "address"
        },
        {
          "name": "sharedWith",
          "type": "string[]"
        },
        {
          "name": "encryptedKeys",
          "type": "string[]"
        }
      ],
      "name": "addNote",
      "outputs": [],
      "payable": false,
      "stateMutability": "nonpayable",
      "type": "function"
    },
    {
      "constant": true,
      "inputs": [],
      "name": "getNoteCount",
      "outputs": [
        {
          "name": "_count",
          "type": "uint256"
        }
      ],
      "payable": false,
      "stateMutability": "view",
      "type": "function"
    },
    {
      "constant": true,
      "inputs": [
        {
          "name": "id",
          "type": "uint256"
        }
      ],
      "name": "getNote",
      "outputs": [
        {
          "name": "tag",
          "type": "string"
        },
        {
          "name": "encrypted",
          "type": "string"
        },
        {
          "name": "author",
          "type": "address"
        },
        {
          "name": "sharedWith",
          "type": "string[]"
        },
        {
          "name": "encryptedKeys",
          "type": "string[]"
        }
      ],
      "payable": false,
      "stateMutability": "view",
      "type": "function"
    }
  ],
  "bytecode": "0x608060405234801561001057600080fd5b5060008081905550610d91806100276000396000f300608060405260043610610057576000357c0100000000000000000000000000000000000000000000000000000000900463ffffffff16806341fb87fb1461005c5780638a8d2ebd14610087578063a965a941146100b0575b600080fd5b34801561006857600080fd5b506100716100f1565b60405161007e9190610bad565b60405180910390f35b34801561009357600080fd5b506100ae60048036036100a99190810190610946565b6100fa565b005b3480156100bc57600080fd5b506100d760048036036100d29190810190610a1d565b610267565b6040516100e8959493929190610b3e565b60405180910390f35b60008054905090565b61010261063d565b60a0604051908101604052808781526020018681526020018573ffffffffffffffffffffffffffffffffffffffff1681526020018481526020018381525090508060016000805481526020019081526020016000206000820151816000019080519060200190610173929190610683565b506020820151816001019080519060200190610190929190610683565b5060408201518160020160006101000a81548173ffffffffffffffffffffffffffffffffffffffff021916908373ffffffffffffffffffffffffffffffffffffffff16021790555060608201518160030190805190602001906101f4929190610703565b506080820151816004019080519060200190610211929190610703565b509050507f47845bae1c19c06fc781e2d5e8c917f9d4d91f4d7cfceda2946276046a0aa8ec6000546040516102469190610bad565b60405180910390a16000808154809291906001019190505550505050505050565b606080600060608061027761063d565b6001600088815260200190815260200160002060a06040519081016040529081600082018054600181600116156101000203166002900480601f01602080910402602001604051908101604052809291908181526020018280546001816001161561010002031660029004801561032f5780601f106103045761010080835404028352916020019161032f565b820191906000526020600020905b81548152906001019060200180831161031257829003601f168201915b50505050508152602001600182018054600181600116156101000203166002900480601f0160208091040260200160405190810160405280929190818152602001828054600181600116156101000203166002900480156103d15780601f106103a6576101008083540402835291602001916103d1565b820191906000526020600020905b8154815290600101906020018083116103b457829003601f168201915b505050505081526020016002820160009054906101000a900473ffffffffffffffffffffffffffffffffffffffff1673ffffffffffffffffffffffffffffffffffffffff1673ffffffffffffffffffffffffffffffffffffffff16815260200160038201805480602002602001604051908101604052809291908181526020016000905b82821015610511578382906000526020600020018054600181600116156101000203166002900480601f0160208091040260200160405190810160405280929190818152602001828054600181600116156101000203166002900480156104fd5780601f106104d2576101008083540402835291602001916104fd565b820191906000526020600020905b8154815290600101906020018083116104e057829003601f168201915b505050505081526020019060010190610455565b50505050815260200160048201805480602002602001604051908101604052809291908181526020016000905b828210156105fa578382906000526020600020018054600181600116156101000203166002900480601f0160208091040260200160405190810160405280929190818152602001828054600181600116156101000203166002900480156105e65780601f106105bb576101008083540402835291602001916105e6565b820191906000526020600020905b8154815290600101906020018083116105c957829003601f168201915b50505050508152602001906001019061053e565b5050505081525050905080600001518160200151826040015183606001518460800151849450839350819150809050955095509550955095505091939590929450565b60a0604051908101604052806060815260200160608152602001600073ffffffffffffffffffffffffffffffffffffffff16815260200160608152602001606081525090565b828054600181600116156101000203166002900490600052602060002090601f016020900481019282601f106106c457805160ff19168380011785556106f2565b828001600101855582156106f2579182015b828111156106f15782518255916020019190600101906106d6565b5b5090506106ff9190610763565b5090565b828054828255906000526020600020908101928215610752579160200282015b82811115610751578251829080519060200190610741929190610683565b5091602001919060010190610723565b5b50905061075f9190610788565b5090565b61078591905b80821115610781576000816000905550600101610769565b5090565b90565b6107b191905b808211156107ad57600081816107a491906107b4565b5060010161078e565b5090565b90565b50805460018160011615610100020316600290046000825580601f106107da57506107f9565b601f0160209004906000526020600020908101906107f89190610763565b5b50565b60006108088235610cda565b905092915050565b600082601f830112151561082357600080fd5b813561083661083182610bf5565b610bc8565b9150818183526020840193506020810190508360005b8381101561087c57813586016108628882610886565b84526020840193506020830192505060018101905061084c565b5050505092915050565b600082601f830112151561089957600080fd5b81356108ac6108a782610c1d565b610bc8565b915080825260208301602083018583830111156108c857600080fd5b6108d3838284610d04565b50505092915050565b600082601f83011215156108ef57600080fd5b81356109026108fd82610c49565b610bc8565b9150808252602083016020830185838301111561091e57600080fd5b610929838284610d04565b50505092915050565b600061093e8235610cfa565b905092915050565b600080600080600060a0868803121561095e57600080fd5b600086013567ffffffffffffffff81111561097857600080fd5b610984888289016108dc565b955050602086013567ffffffffffffffff8111156109a157600080fd5b6109ad888289016108dc565b94505060406109be888289016107fc565b935050606086013567ffffffffffffffff8111156109db57600080fd5b6109e788828901610810565b925050608086013567ffffffffffffffff811115610a0457600080fd5b610a1088828901610810565b9150509295509295909350565b600060208284031215610a2f57600080fd5b6000610a3d84828501610932565b91505092915050565b610a4f81610cb0565b82525050565b6000610a6082610c82565b80845260208401935083602082028501610a7985610c75565b60005b84811015610ab2578383038852610a94838351610af9565b9250610a9f82610ca3565b9150602088019750600181019050610a7c565b508196508694505050505092915050565b6000610ace82610c98565b808452610ae2816020860160208601610d13565b610aeb81610d46565b602085010191505092915050565b6000610b0482610c8d565b808452610b18816020860160208601610d13565b610b2181610d46565b602085010191505092915050565b610b3881610cd0565b82525050565b600060a0820190508181036000830152610b588188610ac3565b90508181036020830152610b6c8187610ac3565b9050610b7b6040830186610a46565b8181036060830152610b8d8185610a55565b90508181036080830152610ba18184610a55565b90509695505050505050565b6000602082019050610bc26000830184610b2f565b92915050565b6000604051905081810181811067ffffffffffffffff82111715610beb57600080fd5b8060405250919050565b600067ffffffffffffffff821115610c0c57600080fd5b602082029050602081019050919050565b600067ffffffffffffffff821115610c3457600080fd5b601f19601f8301169050602081019050919050565b600067ffffffffffffffff821115610c6057600080fd5b601f19601f8301169050602081019050919050565b6000602082019050919050565b600081519050919050565b600081519050919050565b600081519050919050565b6000602082019050919050565b600073ffffffffffffffffffffffffffffffffffffffff82169050919050565b6000819050919050565b600073ffffffffffffffffffffffffffffffffffffffff82169050919050565b6000819050919050565b82818337600083830152505050565b60005b83811015610d31578082015181840152602081019050610d16565b83811115610d40576000848401525b50505050565b6000601f19601f83011690509190505600a265627a7a7230582045b7e94326d9f5f0af39b01cd313eeb9c680b8193545b2cb8be56f6cdd3fd3b66c6578706572696d656e74616cf50037",
  "source": "pragma solidity ^0.4.23;\npragma experimental ABIEncoderV2;\n\ncontract Notes {\n  uint count;\n\n  struct Note {\n    string tag;\n    string encrypted;\n    address author;\n    string[] sharedWith; // public keys\n    string[] encryptedKeys; // encrypted symmetric key\n  }\n\n  mapping (uint => Note) notes;\n\n  event NoteAdded(uint id);\n\n  constructor() public {\n    count = 0;\n  }\n\n  function addNote(string memory tag, string memory encrypted, address author, string[] memory sharedWith, string[] memory encryptedKeys) public {\n    Note memory note = Note({\n      tag: tag,\n      encrypted: encrypted,\n      author: author,\n      sharedWith: sharedWith,\n      encryptedKeys: encryptedKeys\n    });\n\n    notes[count] = note;\n    emit NoteAdded(count);\n    count++;\n  }\n\n  function getNoteCount() public view returns (uint _count) {\n    return count;\n  }\n\n  function getNote(uint id) public view returns (string memory tag, string memory encrypted, address author, string[] memory sharedWith, string[] memory encryptedKeys) {\n    Note memory note = notes[id];\n    return (note.tag, note.encrypted, note.author, note.sharedWith, note.encryptedKeys);\n  }\n}",
  "sourcePath": "/Users/alaanrahim/Desktop/projects/mantle-example/contracts/contracts/Notes.sol",
  "compiler": {
    "name": "solc",
    "version": "0.4.24+commit.e67f0147.Emscripten.clang"
  },
  "schemaVersion": "2.0.1",
  "updatedAt": "2018-12-12T10:03:35.039Z"
}