{
  "contractName": "Notes",
  "abi": [
    {
      "inputs": [],
      "payable": false,
      "stateMutability": "nonpayable",
      "type": "constructor"
    },
    {
      "anonymous": false,
      "inputs": [
        {
          "indexed": false,
          "name": "id",
          "type": "uint256"
        }
      ],
      "name": "NoteAdded",
      "type": "event"
    },
    {
      "constant": false,
      "inputs": [
        {
          "name": "tag",
          "type": "string"
        },
        {
          "name": "encrypted",
          "type": "string"
        },
        {
          "name": "author",
          "type": "address"
        },
        {
          "name": "sharedWith",
          "type": "address[]"
        },
        {
          "name": "encryptedKey",
          "type": "string"
        }
      ],
      "name": "addNote",
      "outputs": [],
      "payable": false,
      "stateMutability": "nonpayable",
      "type": "function"
    },
    {
      "constant": true,
      "inputs": [],
      "name": "getNoteCount",
      "outputs": [
        {
          "name": "_count",
          "type": "uint256"
        }
      ],
      "payable": false,
      "stateMutability": "view",
      "type": "function"
    },
    {
      "constant": true,
      "inputs": [
        {
          "name": "id",
          "type": "uint256"
        }
      ],
      "name": "getNote",
      "outputs": [
        {
          "name": "tag",
          "type": "string"
        },
        {
          "name": "encrypted",
          "type": "string"
        },
        {
          "name": "author",
          "type": "address"
        },
        {
          "name": "sharedWith",
          "type": "address[]"
        }
      ],
      "payable": false,
      "stateMutability": "view",
      "type": "function"
    }
  ],
  "bytecode": "0x608060405234801561001057600080fd5b5060008081905550610bfe806100276000396000f300608060405260043610610057576000357c0100000000000000000000000000000000000000000000000000000000900463ffffffff1680631707c7ad1461005c57806341fb87fb14610085578063a965a941146100b0575b600080fd5b34801561006857600080fd5b50610083600480360361007e9190810190610848565b6100f0565b005b34801561009157600080fd5b5061009a61025d565b6040516100a79190610a51565b60405180910390f35b3480156100bc57600080fd5b506100d760048036036100d2919081019061091f565b610266565b6040516100e794939291906109f7565b60405180910390f35b6100f861058d565b60a0604051908101604052808781526020018681526020018573ffffffffffffffffffffffffffffffffffffffff16815260200184815260200183815250905080600260008054815260200190815260200160002060008201518160000190805190602001906101699291906105d3565b5060208201518160010190805190602001906101869291906105d3565b5060408201518160020160006101000a81548173ffffffffffffffffffffffffffffffffffffffff021916908373ffffffffffffffffffffffffffffffffffffffff16021790555060608201518160030190805190602001906101ea929190610653565b5060808201518160040190805190602001906102079291906105d3565b509050507f47845bae1c19c06fc781e2d5e8c917f9d4d91f4d7cfceda2946276046a0aa8ec60005460405161023c9190610a51565b60405180910390a16000808154809291906001019190505550505050505050565b60008054905090565b6060806000606061027561058d565b6002600087815260200190815260200160002060a06040519081016040529081600082018054600181600116156101000203166002900480601f01602080910402602001604051908101604052809291908181526020018280546001816001161561010002031660029004801561032d5780601f106103025761010080835404028352916020019161032d565b820191906000526020600020905b81548152906001019060200180831161031057829003601f168201915b50505050508152602001600182018054600181600116156101000203166002900480601f0160208091040260200160405190810160405280929190818152602001828054600181600116156101000203166002900480156103cf5780601f106103a4576101008083540402835291602001916103cf565b820191906000526020600020905b8154815290600101906020018083116103b257829003601f168201915b505050505081526020016002820160009054906101000a900473ffffffffffffffffffffffffffffffffffffffff1673ffffffffffffffffffffffffffffffffffffffff1673ffffffffffffffffffffffffffffffffffffffff168152602001600382018054806020026020016040519081016040528092919081815260200182805480156104b357602002820191906000526020600020905b8160009054906101000a900473ffffffffffffffffffffffffffffffffffffffff1673ffffffffffffffffffffffffffffffffffffffff1681526020019060010190808311610469575b50505050508152602001600482018054600181600116156101000203166002900480601f0160208091040260200160405190810160405280929190818152602001828054600181600116156101000203166002900480156105555780601f1061052a57610100808354040283529160200191610555565b820191906000526020600020905b81548152906001019060200180831161053857829003601f168201915b505050505081525050905080600001518160200151826040015183606001518393508292508090509450945094509450509193509193565b60a0604051908101604052806060815260200160608152602001600073ffffffffffffffffffffffffffffffffffffffff16815260200160608152602001606081525090565b828054600181600116156101000203166002900490600052602060002090601f016020900481019282601f1061061457805160ff1916838001178555610642565b82800160010185558215610642579182015b82811115610641578251825591602001919060010190610626565b5b50905061064f91906106dd565b5090565b8280548282559060005260206000209081019282156106cc579160200282015b828111156106cb5782518260006101000a81548173ffffffffffffffffffffffffffffffffffffffff021916908373ffffffffffffffffffffffffffffffffffffffff16021790555091602001919060010190610673565b5b5090506106d99190610702565b5090565b6106ff91905b808211156106fb5760008160009055506001016106e3565b5090565b90565b61074291905b8082111561073e57600081816101000a81549073ffffffffffffffffffffffffffffffffffffffff021916905550600101610708565b5090565b90565b60006107518235610b47565b905092915050565b600082601f830112151561076c57600080fd5b813561077f61077a82610a99565b610a6c565b915081818352602084019350602081019050838560208402820111156107a457600080fd5b60005b838110156107d457816107ba8882610745565b8452602084019350602083019250506001810190506107a7565b5050505092915050565b600082601f83011215156107f157600080fd5b81356108046107ff82610ac1565b610a6c565b9150808252602083016020830185838301111561082057600080fd5b61082b838284610b71565b50505092915050565b60006108408235610b67565b905092915050565b600080600080600060a0868803121561086057600080fd5b600086013567ffffffffffffffff81111561087a57600080fd5b610886888289016107de565b955050602086013567ffffffffffffffff8111156108a357600080fd5b6108af888289016107de565b94505060406108c088828901610745565b935050606086013567ffffffffffffffff8111156108dd57600080fd5b6108e988828901610759565b925050608086013567ffffffffffffffff81111561090657600080fd5b610912888289016107de565b9150509295509295909350565b60006020828403121561093157600080fd5b600061093f84828501610834565b91505092915050565b61095181610b1d565b82525050565b600061096282610afa565b80845260208401935061097483610aed565b60005b828110156109a65761098a868351610948565b61099382610b10565b9150602086019550600181019050610977565b50849250505092915050565b60006109bd82610b05565b8084526109d1816020860160208601610b80565b6109da81610bb3565b602085010191505092915050565b6109f181610b3d565b82525050565b60006080820190508181036000830152610a1181876109b2565b90508181036020830152610a2581866109b2565b9050610a346040830185610948565b8181036060830152610a468184610957565b905095945050505050565b6000602082019050610a6660008301846109e8565b92915050565b6000604051905081810181811067ffffffffffffffff82111715610a8f57600080fd5b8060405250919050565b600067ffffffffffffffff821115610ab057600080fd5b602082029050602081019050919050565b600067ffffffffffffffff821115610ad857600080fd5b601f19601f8301169050602081019050919050565b6000602082019050919050565b600081519050919050565b600081519050919050565b6000602082019050919050565b600073ffffffffffffffffffffffffffffffffffffffff82169050919050565b6000819050919050565b600073ffffffffffffffffffffffffffffffffffffffff82169050919050565b6000819050919050565b82818337600083830152505050565b60005b83811015610b9e578082015181840152602081019050610b83565b83811115610bad576000848401525b50505050565b6000601f19601f83011690509190505600a265627a7a72305820cf1eedd16352c3409fa8603b917a7536a94c5718c51091b72db86f13e543898e6c6578706572696d656e74616cf50037",
  "source": "pragma solidity ^0.4.23;\npragma experimental ABIEncoderV2;\n\ncontract Notes {\n  uint count;\n  mapping (address => uint) users;\n\n  struct Note {\n    string tag;\n    string encrypted;\n    address author;\n    address[] sharedWith;\n    string encryptedKey;\n  }\n\n  mapping (uint => Note) notes;\n\n  event NoteAdded(uint id);\n\n  constructor() public {\n    count = 0;\n  }\n\n  function addNote(string memory tag, string memory encrypted, address author, address[] memory sharedWith, string memory encryptedKey) public {\n    Note memory note = Note({\n      tag: tag,\n      encrypted: encrypted,\n      author: author,\n      sharedWith: sharedWith,\n      encryptedKey: encryptedKey\n    });\n\n    notes[count] = note;\n    emit NoteAdded(count);\n    count++;\n  }\n\n  function getNoteCount() public view returns (uint _count) {\n    return count;\n  }\n\n  function getNote(uint id) public view returns (string memory tag, string memory encrypted, address author, address[] memory sharedWith) {\n    Note memory note = notes[id];\n    return (note.tag, note.encrypted, note.author, note.sharedWith);\n  }\n}",
  "sourcePath": "/Users/alaanrahim/Desktop/projects/mantle-example/contracts/contracts/Notes.sol",
  "compiler": {
    "name": "solc",
    "version": "0.4.24+commit.e67f0147.Emscripten.clang"
  },
  "schemaVersion": "2.0.1",
  "updatedAt": "2018-12-10T18:39:15.344Z"
}