{
  "contractName": "Users",
  "abi": [
    {
      "inputs": [],
      "payable": false,
      "stateMutability": "nonpayable",
      "type": "constructor"
    },
    {
      "anonymous": false,
      "inputs": [
        {
          "indexed": false,
          "name": "id",
          "type": "uint256"
        }
      ],
      "name": "UserAdded",
      "type": "event"
    },
    {
      "constant": false,
      "inputs": [
        {
          "name": "_addr",
          "type": "address"
        },
        {
          "name": "_pubKey",
          "type": "bytes"
        },
        {
          "name": "_name",
          "type": "string"
        }
      ],
      "name": "addUser",
      "outputs": [],
      "payable": false,
      "stateMutability": "nonpayable",
      "type": "function"
    },
    {
      "constant": true,
      "inputs": [],
      "name": "getUserCount",
      "outputs": [
        {
          "name": "_count",
          "type": "uint256"
        }
      ],
      "payable": false,
      "stateMutability": "view",
      "type": "function"
    },
    {
      "constant": true,
      "inputs": [
        {
          "name": "id",
          "type": "uint256"
        }
      ],
      "name": "getUser",
      "outputs": [
        {
          "name": "addr",
          "type": "address"
        },
        {
          "name": "pubKey",
          "type": "bytes"
        },
        {
          "name": "name",
          "type": "string"
        }
      ],
      "payable": false,
      "stateMutability": "view",
      "type": "function"
    }
  ],
  "bytecode": "0x608060405234801561001057600080fd5b5060008081905550610954806100276000396000f300608060405260043610610057576000357c0100000000000000000000000000000000000000000000000000000000900463ffffffff168063b0467deb1461005c578063b5cb15f71461009b578063c3325402146100c6575b600080fd5b34801561006857600080fd5b50610083600480360361007e91908101906106c5565b6100ef565b60405161009293929190610778565b60405180910390f35b3480156100a757600080fd5b506100b06102da565b6040516100bd91906107bd565b60405180910390f35b3480156100d257600080fd5b506100ed60048036036100e89190810190610646565b6102e3565b005b60006060806100fc610415565b60016000868152602001908152602001600020606060405190810160405290816000820160009054906101000a900473ffffffffffffffffffffffffffffffffffffffff1673ffffffffffffffffffffffffffffffffffffffff1673ffffffffffffffffffffffffffffffffffffffff168152602001600182018054600181600116156101000203166002900480601f01602080910402602001604051908101604052809291908181526020018280546001816001161561010002031660029004801561020a5780601f106101df5761010080835404028352916020019161020a565b820191906000526020600020905b8154815290600101906020018083116101ed57829003601f168201915b50505050508152602001600282018054600181600116156101000203166002900480601f0160208091040260200160405190810160405280929190818152602001828054600181600116156101000203166002900480156102ac5780601f10610281576101008083540402835291602001916102ac565b820191906000526020600020905b81548152906001019060200180831161028f57829003601f168201915b5050505050815250509050806000015181602001518260400151819150809050935093509350509193909250565b60008054905090565b6102eb610415565b604083511415156102f857fe5b6060604051908101604052808573ffffffffffffffffffffffffffffffffffffffff16815260200184815260200183815250905080600160008054815260200190815260200160002060008201518160000160006101000a81548173ffffffffffffffffffffffffffffffffffffffff021916908373ffffffffffffffffffffffffffffffffffffffff16021790555060208201518160010190805190602001906103a492919061044d565b5060408201518160020190805190602001906103c19291906104cd565b509050507f27412bb19840b11057dee7c7019767312555c4497d8d4c2383fa6b7791bf014b6000546040516103f691906107bd565b60405180910390a1600080815480929190600101919050555050505050565b606060405190810160405280600073ffffffffffffffffffffffffffffffffffffffff16815260200160608152602001606081525090565b828054600181600116156101000203166002900490600052602060002090601f016020900481019282601f1061048e57805160ff19168380011785556104bc565b828001600101855582156104bc579182015b828111156104bb5782518255916020019190600101906104a0565b5b5090506104c9919061054d565b5090565b828054600181600116156101000203166002900490600052602060002090601f016020900481019282601f1061050e57805160ff191683800117855561053c565b8280016001018555821561053c579182015b8281111561053b578251825591602001919060010190610520565b5b509050610549919061054d565b5090565b61056f91905b8082111561056b576000816000905550600101610553565b5090565b90565b600061057e823561089d565b905092915050565b600082601f830112151561059957600080fd5b81356105ac6105a782610805565b6107d8565b915080825260208301602083018583830111156105c857600080fd5b6105d38382846108c7565b50505092915050565b600082601f83011215156105ef57600080fd5b81356106026105fd82610831565b6107d8565b9150808252602083016020830185838301111561061e57600080fd5b6106298382846108c7565b50505092915050565b600061063e82356108bd565b905092915050565b60008060006060848603121561065b57600080fd5b600061066986828701610572565b935050602084013567ffffffffffffffff81111561068657600080fd5b61069286828701610586565b925050604084013567ffffffffffffffff8111156106af57600080fd5b6106bb868287016105dc565b9150509250925092565b6000602082840312156106d757600080fd5b60006106e584828501610632565b91505092915050565b6106f781610873565b82525050565b60006107088261085d565b80845261071c8160208601602086016108d6565b61072581610909565b602085010191505092915050565b600061073e82610868565b8084526107528160208601602086016108d6565b61075b81610909565b602085010191505092915050565b61077281610893565b82525050565b600060608201905061078d60008301866106ee565b818103602083015261079f81856106fd565b905081810360408301526107b38184610733565b9050949350505050565b60006020820190506107d26000830184610769565b92915050565b6000604051905081810181811067ffffffffffffffff821117156107fb57600080fd5b8060405250919050565b600067ffffffffffffffff82111561081c57600080fd5b601f19601f8301169050602081019050919050565b600067ffffffffffffffff82111561084857600080fd5b601f19601f8301169050602081019050919050565b600081519050919050565b600081519050919050565b600073ffffffffffffffffffffffffffffffffffffffff82169050919050565b6000819050919050565b600073ffffffffffffffffffffffffffffffffffffffff82169050919050565b6000819050919050565b82818337600083830152505050565b60005b838110156108f45780820151818401526020810190506108d9565b83811115610903576000848401525b50505050565b6000601f19601f83011690509190505600a265627a7a72305820bb609d3305a9f997333d575cc26f62928d7970738c4a726125436a2bdc5a399b6c6578706572696d656e74616cf50037",
  "source": "pragma solidity ^0.4.23;\npragma experimental ABIEncoderV2;\n\ncontract Users {\n  uint count;\n\n  struct User {\n    address addr;\n    bytes pubKey;\n    string name;\n  }\n\n  mapping (uint => User) users;\n\n  event UserAdded(uint id);\n\n  constructor() public {\n    count = 0;\n  }\n\n  function addUser(address _addr, bytes _pubKey, string _name) public {\n    // EC public key (without 0x prefix) will be 64 bytes\n    assert(_pubKey.length == 64);\n\n    User memory user = User({\n      addr: _addr,\n      pubKey: _pubKey,\n      name: _name\n    });\n\n    users[count] = user;\n    emit UserAdded(count);\n    count++;\n  }\n\n  function getUserCount() public view returns (uint _count) {\n    return count;\n  }\n\n  function getUser(uint id) public view returns (address addr, bytes pubKey, string name) {\n    User memory user = users[id];\n    return (user.addr, user.pubKey, user.name);\n  }\n}",
  "sourcePath": "/Users/alaanrahim/Desktop/projects/mantle-example/contracts/contracts/Users.sol",
  "compiler": {
    "name": "solc",
    "version": "0.4.24+commit.e67f0147.Emscripten.clang"
  },
  "schemaVersion": "2.0.1",
  "updatedAt": "2018-12-11T11:47:29.658Z"
}